{
  "contractName": "LiabilityFactory",
  "abi": [
    {
      "constant": true,
      "inputs": [],
      "name": "robotLiabilityLib",
      "outputs": [
        {
          "name": "",
          "type": "address"
        }
      ],
      "payable": false,
      "stateMutability": "view",
      "type": "function"
    },
    {
      "constant": true,
      "inputs": [],
      "name": "gasEpoch",
      "outputs": [
        {
          "name": "",
          "type": "uint256"
        }
      ],
      "payable": false,
      "stateMutability": "view",
      "type": "function"
    },
    {
      "constant": true,
      "inputs": [],
      "name": "xrt",
      "outputs": [
        {
          "name": "",
          "type": "address"
        }
      ],
      "payable": false,
      "stateMutability": "view",
      "type": "function"
    },
    {
      "constant": true,
      "inputs": [],
      "name": "ens",
      "outputs": [
        {
          "name": "",
          "type": "address"
        }
      ],
      "payable": false,
      "stateMutability": "view",
      "type": "function"
    },
    {
      "constant": true,
      "inputs": [],
      "name": "auction",
      "outputs": [
        {
          "name": "",
          "type": "address"
        }
      ],
      "payable": false,
      "stateMutability": "view",
      "type": "function"
    },
    {
      "constant": true,
      "inputs": [
        {
          "name": "",
          "type": "address"
        }
      ],
      "name": "gasUtilizing",
      "outputs": [
        {
          "name": "",
          "type": "uint256"
        }
      ],
      "payable": false,
      "stateMutability": "view",
      "type": "function"
    },
    {
      "constant": true,
      "inputs": [],
      "name": "smmaPeriod",
      "outputs": [
        {
          "name": "",
          "type": "uint256"
        }
      ],
      "payable": false,
      "stateMutability": "view",
      "type": "function"
    },
    {
      "constant": true,
      "inputs": [
        {
          "name": "",
          "type": "address"
        }
      ],
      "name": "isLighthouse",
      "outputs": [
        {
          "name": "",
          "type": "bool"
        }
      ],
      "payable": false,
      "stateMutability": "view",
      "type": "function"
    },
    {
      "constant": true,
      "inputs": [],
      "name": "totalGasUtilizing",
      "outputs": [
        {
          "name": "",
          "type": "uint256"
        }
      ],
      "payable": false,
      "stateMutability": "view",
      "type": "function"
    },
    {
      "constant": true,
      "inputs": [],
      "name": "lighthouseLib",
      "outputs": [
        {
          "name": "",
          "type": "address"
        }
      ],
      "payable": false,
      "stateMutability": "view",
      "type": "function"
    },
    {
      "constant": true,
      "inputs": [
        {
          "name": "",
          "type": "bytes32"
        }
      ],
      "name": "isHashConsumed",
      "outputs": [
        {
          "name": "",
          "type": "bool"
        }
      ],
      "payable": false,
      "stateMutability": "view",
      "type": "function"
    },
    {
      "constant": true,
      "inputs": [],
      "name": "gasPrice",
      "outputs": [
        {
          "name": "",
          "type": "uint256"
        }
      ],
      "payable": false,
      "stateMutability": "view",
      "type": "function"
    },
    {
      "inputs": [
        {
          "name": "_robot_liability_lib",
          "type": "address"
        },
        {
          "name": "_lighthouse_lib",
          "type": "address"
        },
        {
          "name": "_auction",
          "type": "address"
        },
        {
          "name": "_xrt",
          "type": "address"
        },
        {
          "name": "_ens",
          "type": "address"
        }
      ],
      "payable": false,
      "stateMutability": "nonpayable",
      "type": "constructor"
    },
    {
      "anonymous": false,
      "inputs": [
        {
          "indexed": true,
          "name": "liability",
          "type": "address"
        }
      ],
      "name": "NewLiability",
      "type": "event"
    },
    {
      "anonymous": false,
      "inputs": [
        {
          "indexed": true,
          "name": "lighthouse",
          "type": "address"
        },
        {
          "indexed": false,
          "name": "name",
          "type": "string"
        }
      ],
      "name": "NewLighthouse",
      "type": "event"
    },
    {
      "anonymous": false,
      "inputs": [
        {
          "indexed": true,
          "name": "hash",
          "type": "bytes32"
        }
      ],
      "name": "HashConsumed",
      "type": "event"
    },
    {
      "constant": true,
      "inputs": [
        {
          "name": "_gas",
          "type": "uint256"
        }
      ],
      "name": "wnFromGas",
      "outputs": [
        {
          "name": "",
          "type": "uint256"
        }
      ],
      "payable": false,
      "stateMutability": "view",
      "type": "function"
    },
    {
      "constant": false,
      "inputs": [
        {
          "name": "_demand",
          "type": "bytes"
        },
        {
          "name": "_offer",
          "type": "bytes"
        }
      ],
      "name": "createLiability",
      "outputs": [
        {
          "name": "liability",
          "type": "address"
        }
      ],
      "payable": false,
      "stateMutability": "nonpayable",
      "type": "function"
    },
    {
      "constant": false,
      "inputs": [
        {
          "name": "_minimalFreeze",
          "type": "uint256"
        },
        {
          "name": "_timeoutBlocks",
          "type": "uint256"
        },
        {
          "name": "_name",
          "type": "string"
        }
      ],
      "name": "createLighthouse",
      "outputs": [
        {
          "name": "lighthouse",
          "type": "address"
        }
      ],
      "payable": false,
      "stateMutability": "nonpayable",
      "type": "function"
    },
    {
      "constant": false,
      "inputs": [
        {
          "name": "_gas",
          "type": "uint256"
        }
      ],
      "name": "liabilityFinalized",
      "outputs": [
        {
          "name": "",
          "type": "bool"
        }
      ],
      "payable": false,
      "stateMutability": "nonpayable",
      "type": "function"
    }
  ],
  "bytecode": "0x608060405260006004556402540be40060065534801561001e57600080fd5b5060405160a080611ef68339810160409081528151602083015191830151606084015160809094015160088054600160a060020a0319908116600160a060020a0395861617909155600980548216958516959095179094556001805485169284169290921790915560028054841694831694909417909355600380549092169216919091179055611e42806100b46000396000f3006080604052600436106100cc5763ffffffff60e060020a6000350416630d71212f81146100d1578063284fd42f14610102578063330f9588146101295780633f15457f1461013e5780634d5b85f1146101535780637d9f6db51461017b578063afecd5e414610190578063ba16bdb6146101b1578063bbb6630f146101c6578063c15aec44146101fb578063c9b94eb914610210578063d2b962f214610228578063d64d136d14610254578063da302fc31461026c578063fa3260de14610281578063fe173b9714610299575b600080fd5b3480156100dd57600080fd5b506100e66102ae565b60408051600160a060020a039092168252519081900360200190f35b34801561010e57600080fd5b506101176102bd565b60408051918252519081900360200190f35b34801561013557600080fd5b506100e66102c7565b34801561014a57600080fd5b506100e66102d6565b34801561015f57600080fd5b506100e6600480359060248035916044359182019101356102e5565b34801561018757600080fd5b506100e6610754565b34801561019c57600080fd5b50610117600160a060020a0360043516610763565b3480156101bd57600080fd5b50610117610775565b3480156101d257600080fd5b506101e7600160a060020a036004351661077a565b604080519115158252519081900360200190f35b34801561020757600080fd5b5061011761078f565b34801561021c57600080fd5b506101e7600435610795565b34801561023457600080fd5b506100e660246004803582810192908201359181359182019101356108a1565b34801561026057600080fd5b50610117600435611132565b34801561027857600080fd5b506100e66112a2565b34801561028d57600080fd5b506101e76004356112b1565b3480156102a557600080fd5b506101176112c6565b600854600160a060020a031681565b650327ec1e0c0081565b600254600160a060020a031681565b600354600160a060020a031681565b6000806000807fa058d6058d5ec525aa555c572720908a8d6ea6e2781b460bdecb2abf8bf56d4c6001029250828686604051808383808284376040805193909101839003832060208085019890985283820152805180840382018152606090930190819052825192969095508594508601925081905083835b6020831061037d5780518252601f19909201916020918201910161035e565b51815160209384036101000a6000190180199092169116179052604080519290940182900382206003547f0178b8bf000000000000000000000000000000000000000000000000000000008452600484018290529451909850600160a060020a039094169550630178b8bf945060248083019491935090918290030181600087803b15801561040b57600080fd5b505af115801561041f573d6000803e3d6000fd5b505050506040513d602081101561043557600080fd5b5051600160a060020a03161561044a57600080fd5b600954600160a060020a031688886104606113e9565b600160a060020a03909316835260208301919091526040808301919091525190819003606001906000f08015801561049c573d6000803e3d6000fd5b50935083600160a060020a03167ffea5f888ffd98cd2299e704fb235c2166cb5a9d9d8e9debcc08160626b8019a487876040518080602001828103825284848281815260200192508082843760405192018290039550909350505050a2600160a060020a0380851660009081526007602052604090819020805460ff1916600117905560035490519116906306ab592390859089908990808383808284376040805191909301819003812060e060020a63ffffffff8a160282526004820197909752602481019690965250306044860152516064808601956000955091935090839003019050818387803b15801561059357600080fd5b505af11580156105a7573d6000803e3d6000fd5b5050600354604080517f0178b8bf000000000000000000000000000000000000000000000000000000008152600481018890529051600160a060020a039092169350630178b8bf92506024808201926020929091908290030181600087803b15801561061257600080fd5b505af1158015610626573d6000803e3d6000fd5b505050506040513d602081101561063c57600080fd5b5051600354604080517f1896f70a00000000000000000000000000000000000000000000000000000000815260048101869052600160a060020a0380851660248301529151939450911691631896f70a9160448082019260009290919082900301818387803b1580156106ae57600080fd5b505af11580156106c2573d6000803e3d6000fd5b5050604080517fd5fa2b0000000000000000000000000000000000000000000000000000000000815260048101869052600160a060020a0388811660248301529151918516935063d5fa2b00925060448082019260009290919082900301818387803b15801561073157600080fd5b505af1158015610745573d6000803e3d6000fd5b50505050505050949350505050565b600154600160a060020a031681565b60056020526000908152604090205481565b606481565b60076020526000908152604090205460ff1681565b60045481565b6000806107a46006543a6112cc565b60065533600090815260056020526040812054116107c157600080fd5b5a830390508083116107d257600080fd5b60048054820190553360009081526005602052604090208054820190819055600254600160a060020a0316906340c10f1990329061080f90611132565b6040518363ffffffff1660e060020a0281526004018083600160a060020a0316600160a060020a0316815260200182815260200192505050602060405180830381600087803b15801561086157600080fd5b505af1158015610875573d6000803e3d6000fd5b505050506040513d602081101561088b57600080fd5b5051151561089857600080fd5b50600192915050565b3360009081526007602052604081205481908190819060ff1615156108c557600080fd5b6108d16006543a6112cc565b6006555a600854909350600160a060020a03166108ec6113f9565b600160a060020a03909116815260405190819003602001906000f080158015610919573d6000803e3d6000fd5b50604051909450600160a060020a038516907ff0f0e2354315aae25080baa26761b4ef52d621c91208fb0edde9e3f3fade321990600090a26040517fd9ff764a0000000000000000000000000000000000000000000000000000000060208201818152600160a060020a038716928b918b916024018383808284378201915050935050505060405160208183030381529060405260405180828051906020019080838360005b838110156109d75781810151838201526020016109bf565b50505050905090810190601f168015610a045780820380516001836020036101000a031916815260200191505b509150506000604051808303816000865af19150501515610a2457600080fd5b610a9684600160a060020a031663f0476bc56040518163ffffffff1660e060020a028152600401602060405180830381600087803b158015610a6557600080fd5b505af1158015610a79573d6000803e3d6000fd5b505050506040513d6020811015610a8f57600080fd5b50516112d9565b6040517fd50569620000000000000000000000000000000000000000000000000000000060208201818152600160a060020a03871692899189916024018383808284378201915050935050505060405160208183030381529060405260405180828051906020019080838360005b83811015610b1c578181015183820152602001610b04565b50505050905090810190601f168015610b495780820380516001836020036101000a031916815260200191505b509150506000604051808303816000865af19150501515610b6957600080fd5b610baa84600160a060020a031663699373ca6040518163ffffffff1660e060020a028152600401602060405180830381600087803b158015610a6557600080fd5b600084600160a060020a031663051064c66040518163ffffffff1660e060020a028152600401602060405180830381600087803b158015610bea57600080fd5b505af1158015610bfe573d6000803e3d6000fd5b505050506040513d6020811015610c1457600080fd5b50511115610d2d57610d2d84600160a060020a031663c2d8de546040518163ffffffff1660e060020a028152600401602060405180830381600087803b158015610c5d57600080fd5b505af1158015610c71573d6000803e3d6000fd5b505050506040513d6020811015610c8757600080fd5b5051604080517f051064c600000000000000000000000000000000000000000000000000000000815290513291600160a060020a0389169163051064c6916004808201926020929091908290030181600087803b158015610ce757600080fd5b505af1158015610cfb573d6000803e3d6000fd5b505050506040513d6020811015610d1157600080fd5b5051600254600160a060020a031692919063ffffffff61133816565b83600160a060020a031663fc0c546a6040518163ffffffff1660e060020a028152600401602060405180830381600087803b158015610d6b57600080fd5b505af1158015610d7f573d6000803e3d6000fd5b505050506040513d6020811015610d9557600080fd5b5051604080517f13faede60000000000000000000000000000000000000000000000000000000081529051919350600091600160a060020a038716916313faede691600480830192602092919082900301818787803b158015610df757600080fd5b505af1158015610e0b573d6000803e3d6000fd5b505050506040513d6020811015610e2157600080fd5b50511115610f3857610f3884600160a060020a031663474ce8726040518163ffffffff1660e060020a028152600401602060405180830381600087803b158015610e6a57600080fd5b505af1158015610e7e573d6000803e3d6000fd5b505050506040513d6020811015610e9457600080fd5b5051604080517f13faede600000000000000000000000000000000000000000000000000000000815290518791600160a060020a038316916313faede6916004808201926020929091908290030181600087803b158015610ef457600080fd5b505af1158015610f08573d6000803e3d6000fd5b505050506040513d6020811015610f1e57600080fd5b5051600160a060020a03861692919063ffffffff61133816565b83600160a060020a0316633a5381b56040518163ffffffff1660e060020a028152600401602060405180830381600087803b158015610f7657600080fd5b505af1158015610f8a573d6000803e3d6000fd5b505050506040513d6020811015610fa057600080fd5b5051600160a060020a0316158015906110225750600084600160a060020a0316633f6d82566040518163ffffffff1660e060020a028152600401602060405180830381600087803b158015610ff457600080fd5b505af1158015611008573d6000803e3d6000fd5b505050506040513d602081101561101e57600080fd5b5051115b156110f2576110f284600160a060020a031663474ce8726040518163ffffffff1660e060020a028152600401602060405180830381600087803b15801561106857600080fd5b505af115801561107c573d6000803e3d6000fd5b505050506040513d602081101561109257600080fd5b5051604080517f3f6d825600000000000000000000000000000000000000000000000000000000815290518791600160a060020a03831691633f6d8256916004808201926020929091908290030181600087803b158015610ce757600080fd5b5a600480546201afbd9290950394850182019055600160a060020a0385166000908152600560205260409020805490940101909255509095945050505050565b6000806000600160009054906101000a9004600160a060020a0316600160a060020a031663a6b513ee6040518163ffffffff1660e060020a028152600401602060405180830381600087803b15801561118a57600080fd5b505af115801561119e573d6000803e3d6000fd5b505050506040513d60208110156111b457600080fd5b505115156111c45783925061129b565b60048054600154604080517fa6b513ee0000000000000000000000000000000000000000000000000000000081529051650327ec1e0c009093049550600160a060020a039091169263a6b513ee9282820192602092908290030181600087803b15801561123057600080fd5b505af1158015611244573d6000803e3d6000fd5b505050506040513d602081101561125a57600080fd5b5051600654600384900a908602600285900a02633b9aca000281151561127c57fe5b0481151561128657fe5b0490508381106112965780611298565b835b92505b5050919050565b600954600160a060020a031681565b60006020819052908152604090205460ff1681565b60065481565b6064606392909202010490565b60008181526020819052604090205460ff16156112f557600080fd5b600081815260208190526040808220805460ff191660011790555182917fff8bad61d8f2eaa50a98cc8d31de285608e5a904d330f193043d6c9854e2586d91a250565b604080517f23b872dd000000000000000000000000000000000000000000000000000000008152600160a060020a0385811660048301528481166024830152604482018490529151918616916323b872dd916064808201926020929091908290030181600087803b1580156113ac57600080fd5b505af11580156113c0573d6000803e3d6000fd5b505050506040513d60208110156113d657600080fd5b505115156113e357600080fd5b50505050565b6040516104508061140a83390190565b6040516105bd8061185a833901905600608060405260006007556000600855600060095534801561001f57600080fd5b50604051606080610450833981016040908152815160208301519190920151600a8054600160a060020a031916600160a060020a0385161790556000821180156100695750600081115b151561007457600080fd5b6003829055600481815560058054600160a060020a031916331790819055604080517f330f95880000000000000000000000000000000000000000000000000000000081529051600160a060020a03929092169263330f95889282820192602092908290030181600087803b1580156100ec57600080fd5b505af1158015610100573d6000803e3d6000fd5b505050506040513d602081101561011657600080fd5b505160068054600160a060020a03909216600160a060020a03199092169190911790555050506103058061014b6000396000f3006080604052600436106100ae5763ffffffff7c01000000000000000000000000000000000000000000000000000000006000350416630f027c6781146100fe57806327e235e3146101255780632ebe14b014610146578063330f95881461015b5780633acddfc11461018c5780635daf08ca146101a15780636c55e385146101b957806380c6ff73146101ce578063c45a0155146101e3578063cebe09c9146101f8578063ef23b3a31461020d575b3480156100ba57600080fd5b50600a54604051600160a060020a0390911690600090369080838380828437820191505092505050600060405180830381855af491505015156100fc57600080fd5b005b34801561010a57600080fd5b5061011361022e565b60408051918252519081900360200190f35b34801561013157600080fd5b50610113600160a060020a0360043516610234565b34801561015257600080fd5b50610113610246565b34801561016757600080fd5b5061017061024c565b60408051600160a060020a039092168252519081900360200190f35b34801561019857600080fd5b5061011361025b565b3480156101ad57600080fd5b50610170600435610261565b3480156101c557600080fd5b50610113610289565b3480156101da57600080fd5b5061011361028f565b3480156101ef57600080fd5b50610170610295565b34801561020457600080fd5b506101136102a4565b34801561021957600080fd5b50610113600160a060020a03600435166102aa565b60005490565b60026020526000908152604090205481565b60045481565b600654600160a060020a031681565b60085481565b600080548290811061026f57fe5b600091825260209091200154600160a060020a0316905081565b60035481565b60075481565b600554600160a060020a031681565b60095481565b600354600160a060020a0382166000908152600260205260408120549091908115156102d257fe5b04929150505600a165627a7a7230582040e1d97ff9c18bd0eb720814f6da52386144bc9af8fec09809fd623937cc1e600029608060405234801561001057600080fd5b506040516020806105bd8339810160405251600e8054600160a060020a03909216600160a060020a0319928316179055600d8054909116331790556105638061005a6000396000f3006080604052600436106100e55763ffffffff7c0100000000000000000000000000000000000000000000000000000000600035041663051064c681146101355780630ad9d0521461015c5780630b6c754b146101e657806313faede61461020f57806314f1586a146102245780633a5381b5146102395780633f6d82561461026a578063474ce8721461027f5780636301fd631461029457806365372147146102a9578063699373ca146102be5780638d4e4083146102d3578063c2d8de54146102e8578063c45a0155146102fd578063f0476bc514610312578063fc0c546a14610327575b3480156100f157600080fd5b50600e54604051600160a060020a0390911690600090369080838380828437820191505092505050600060405180830381855af4915050151561013357600080fd5b005b34801561014157600080fd5b5061014a61033c565b60408051918252519081900360200190f35b34801561016857600080fd5b50610171610342565b6040805160208082528351818301528351919283929083019185019080838360005b838110156101ab578181015183820152602001610193565b50505050905090810190601f1680156101d85780820380516001836020036101000a031916815260200191505b509250505060405180910390f35b3480156101f257600080fd5b506101fb6103d0565b604080519115158252519081900360200190f35b34801561021b57600080fd5b5061014a6103f1565b34801561023057600080fd5b506101716103f7565b34801561024557600080fd5b5061024e610451565b60408051600160a060020a039092168252519081900360200190f35b34801561027657600080fd5b5061014a610460565b34801561028b57600080fd5b5061024e610466565b3480156102a057600080fd5b5061024e610475565b3480156102b557600080fd5b50610171610484565b3480156102ca57600080fd5b5061014a6104dc565b3480156102df57600080fd5b506101fb6104e2565b3480156102f457600080fd5b5061024e610504565b34801561030957600080fd5b5061024e610513565b34801561031e57600080fd5b5061014a610522565b34801561033357600080fd5b5061024e610528565b60055481565b6000805460408051602060026001851615610100026000190190941693909304601f810184900484028201840190925281815292918301828280156103c85780601f1061039d576101008083540402835291602001916103c8565b820191906000526020600020905b8154815290600101906020018083116103ab57829003601f168201915b505050505081565b600c5474010000000000000000000000000000000000000000900460ff1681565b60045481565b60018054604080516020600284861615610100026000190190941693909304601f810184900484028201840190925281815292918301828280156103c85780601f1061039d576101008083540402835291602001916103c8565b600c54600160a060020a031681565b60065481565b600a54600160a060020a031681565b600b54600160a060020a031681565b6002805460408051602060018416156101000260001901909316849004601f810184900484028201840190925281815292918301828280156103c85780601f1061039d576101008083540402835291602001916103c8565b60085481565b600c547501000000000000000000000000000000000000000000900460ff1681565b600954600160a060020a031681565b600d54600160a060020a031681565b60075481565b600354600160a060020a0316815600a165627a7a723058204094696e8f45e1dc981811dfe589a1d72b3a7adb02c4b8418f53599891448a020029a165627a7a723058209b1627c57551844602d6a9b2bb1a1c2909a62138ed5b786096953c39a6996b4d0029",
  "source": "pragma solidity ^0.4.24;\n\nimport './RobotLiability.sol';\nimport './SingletonHash.sol';\nimport './DutchAuction.sol';\nimport './Lighthouse.sol';\nimport './XRT.sol';\n\nimport 'ens/contracts/ENS.sol';\nimport 'ens/contracts/AbstractENS.sol';\nimport 'ens/contracts/PublicResolver.sol';\n\nimport 'openzeppelin-solidity/contracts/token/ERC20/SafeERC20.sol';\n\ncontract LiabilityFactory is SingletonHash {\n    constructor(\n        address _robot_liability_lib,\n        address _lighthouse_lib,\n        DutchAuction _auction,\n        XRT _xrt,\n        ENS _ens\n    ) public {\n        robotLiabilityLib = _robot_liability_lib;\n        lighthouseLib = _lighthouse_lib;\n        auction = _auction;\n        xrt = _xrt;\n        ens = _ens;\n    }\n\n    using SafeERC20 for XRT;\n    using SafeERC20 for ERC20;\n\n    /**\n     * @dev New liability created \n     */\n    event NewLiability(address indexed liability);\n\n    /**\n     * @dev New lighthouse created\n     */\n    event NewLighthouse(address indexed lighthouse, string name);\n\n    /**\n     * @dev Robonomics dutch auction contract\n     */\n    DutchAuction public auction;\n\n    /**\n     * @dev Robonomics network protocol token\n     */\n    XRT public xrt;\n\n    /**\n     * @dev Ethereum name system\n     */\n    ENS public ens;\n\n    /**\n     * @dev Total GAS utilized by Robonomics network\n     */\n    uint256 public totalGasUtilizing = 0;\n\n    /**\n     * @dev GAS utilized by liability contracts\n     */\n    mapping(address => uint256) public gasUtilizing;\n\n    /**\n     * @dev The count of utilized gas for switch to next epoch \n     */\n    uint256 public constant gasEpoch = 347 * 10**10;\n\n    /**\n     * @dev SMMA filter with function: SMMA(i) = (SMMA(i-1)*(n-1) + PRICE(i)) / n\n     * @param _prePrice PRICE[n-1]\n     * @param _price PRICE[n]\n     * @return filtered price\n     */\n    function smma(uint256 _prePrice, uint256 _price) internal returns (uint256) {\n        return (_prePrice * (smmaPeriod - 1) + _price) / smmaPeriod;\n    }\n\n    /**\n     * @dev SMMA filter period\n     */\n    uint256 public constant smmaPeriod = 100;\n\n    /**\n     * @dev Current gas price in wei\n     */\n    uint256 public gasPrice = 10 * 10**9;\n\n    /**\n     * @dev Lighthouse accounting\n     */\n    mapping(address => bool) public isLighthouse;\n\n    /**\n     * @dev Robot liability shared code smart contract\n     */\n    address public robotLiabilityLib;\n\n    /**\n     * @dev Lightouse shared code smart contract\n     */\n    address public lighthouseLib;\n\n    /**\n     * @dev XRT emission value for utilized gas\n     */\n    function wnFromGas(uint256 _gas) view returns (uint256) {\n        // Just return wn=gas when auction isn't finish\n        if (auction.finalPrice() == 0)\n            return _gas;\n\n        // Current gas utilization epoch\n        uint256 epoch = totalGasUtilizing / gasEpoch;\n\n        // XRT emission with addition coefficient by gas utilzation epoch\n        uint256 wn = _gas * 10**9 * gasPrice * 2**epoch / 3**epoch / auction.finalPrice();\n\n        // Check to not permit emission decrease below wn=gas\n        return wn < _gas ? _gas : wn;\n    }\n\n    /**\n     * @dev Only lighthouse guard\n     */\n    modifier onlyLighthouse {\n        require(isLighthouse[msg.sender]);\n        _;\n    }\n\n    modifier gasPriceEstimated {\n        gasPrice = smma(gasPrice, tx.gasprice);\n        _;\n    }\n\n\n    /**\n     * @dev Create robot liability smart contract\n     * @param _demand ABI-encoded demand message \n     * @param _offer ABI-encoded offer message \n     */\n    function createLiability(\n        bytes _demand,\n        bytes _offer\n    )\n        external \n        onlyLighthouse\n        gasPriceEstimated\n        returns (RobotLiability liability) { // Store in memory available gas\n        uint256 gasinit = gasleft();\n\n        // Create liability\n        liability = new RobotLiability(robotLiabilityLib);\n        emit NewLiability(liability);\n\n        // Parse messages\n        require(liability.call(abi.encodePacked(bytes4(0xd9ff764a), _demand))); // liability.demand(...)\n        singletonHash(liability.demandHash());\n\n        require(liability.call(abi.encodePacked(bytes4(0xd5056962), _offer))); // liability.offer(...)\n        singletonHash(liability.offerHash());\n\n        // Transfer lighthouse fee to lighthouse worker directly\n        if (liability.lighthouseFee() > 0)\n            xrt.safeTransferFrom(liability.promisor(),\n                                 tx.origin,\n                                 liability.lighthouseFee());\n\n        // Transfer liability security and hold on contract\n        ERC20 token = liability.token();\n        if (liability.cost() > 0)\n            token.safeTransferFrom(liability.promisee(),\n                                   liability,\n                                   liability.cost());\n\n        // Transfer validator fee and hold on contract\n        if (address(liability.validator()) != 0 && liability.validatorFee() > 0)\n            xrt.safeTransferFrom(liability.promisee(),\n                                 liability,\n                                 liability.validatorFee());\n\n        // Accounting gas usage of transaction\n        uint256 gas = gasinit - gasleft() + 110525; // Including observation error\n        totalGasUtilizing       += gas;\n        gasUtilizing[liability] += gas;\n     }\n\n    /**\n     * @dev Create lighthouse smart contract\n     * @param _minimalFreeze Minimal freeze value of XRT token\n     * @param _timeoutBlocks Max time of lighthouse silence in blocks\n     * @param _name Lighthouse subdomain,\n     *              example: for 'my-name' will created 'my-name.lighthouse.1.robonomics.eth' domain\n     */\n    function createLighthouse(\n        uint256 _minimalFreeze,\n        uint256 _timeoutBlocks,\n        string  _name\n    )\n        external\n        returns (address lighthouse)\n    {\n        bytes32 lighthouseNode\n            // lighthouse.2.robonomics.eth\n            = 0xa058d6058d5ec525aa555c572720908a8d6ea6e2781b460bdecb2abf8bf56d4c;\n\n        // Name reservation check\n        bytes32 subnode = keccak256(abi.encodePacked(lighthouseNode, keccak256(_name)));\n        require(ens.resolver(subnode) == 0);\n\n        // Create lighthouse\n        lighthouse = new Lighthouse(lighthouseLib, _minimalFreeze, _timeoutBlocks);\n        emit NewLighthouse(lighthouse, _name);\n        isLighthouse[lighthouse] = true;\n\n        // Register subnode\n        ens.setSubnodeOwner(lighthouseNode, keccak256(_name), this);\n\n        // Register lighthouse address\n        PublicResolver resolver = PublicResolver(ens.resolver(lighthouseNode));\n        ens.setResolver(subnode, resolver);\n        resolver.setAddr(subnode, lighthouse);\n    }\n\n    /**\n     * @dev Is called whan after liability finalization\n     * @param _gas Liability finalization gas expenses\n     */\n    function liabilityFinalized(\n        uint256 _gas\n    )\n        external\n        gasPriceEstimated\n        returns (bool)\n    {\n        require(gasUtilizing[msg.sender] > 0);\n\n        uint256 gas = _gas - gasleft();\n        require(_gas > gas);\n\n        totalGasUtilizing        += gas;\n        gasUtilizing[msg.sender] += gas;\n\n        require(xrt.mint(tx.origin, wnFromGas(gasUtilizing[msg.sender])));\n        return true;\n    }\n}\n",
  "sourcePath": "/home/akru/devel/robonomics_contracts/contracts/robonomics/LiabilityFactory.sol",
  "compiler": {
    "name": "solc",
    "version": "0.4.24+commit.e67f0147.Emscripten.clang"
  },
  "schemaVersion": "2.0.1",
  "updatedAt": "2018-10-29T11:38:39.698Z"
}