{
  "contractName": "LighthouseLib",
  "abi": [
    {
      "constant": true,
      "inputs": [],
      "name": "membersLength",
      "outputs": [
        {
          "name": "",
          "type": "uint256"
        }
      ],
      "payable": false,
      "stateMutability": "view",
      "type": "function"
    },
    {
      "constant": true,
      "inputs": [
        {
          "name": "",
          "type": "address"
        }
      ],
      "name": "balances",
      "outputs": [
        {
          "name": "",
          "type": "uint256"
        }
      ],
      "payable": false,
      "stateMutability": "view",
      "type": "function"
    },
    {
      "constant": true,
      "inputs": [],
      "name": "timeoutBlocks",
      "outputs": [
        {
          "name": "",
          "type": "uint256"
        }
      ],
      "payable": false,
      "stateMutability": "view",
      "type": "function"
    },
    {
      "constant": true,
      "inputs": [],
      "name": "xrt",
      "outputs": [
        {
          "name": "",
          "type": "address"
        }
      ],
      "payable": false,
      "stateMutability": "view",
      "type": "function"
    },
    {
      "constant": true,
      "inputs": [],
      "name": "marker",
      "outputs": [
        {
          "name": "",
          "type": "uint256"
        }
      ],
      "payable": false,
      "stateMutability": "view",
      "type": "function"
    },
    {
      "constant": true,
      "inputs": [
        {
          "name": "",
          "type": "uint256"
        }
      ],
      "name": "members",
      "outputs": [
        {
          "name": "",
          "type": "address"
        }
      ],
      "payable": false,
      "stateMutability": "view",
      "type": "function"
    },
    {
      "constant": true,
      "inputs": [],
      "name": "minimalFreeze",
      "outputs": [
        {
          "name": "",
          "type": "uint256"
        }
      ],
      "payable": false,
      "stateMutability": "view",
      "type": "function"
    },
    {
      "constant": true,
      "inputs": [],
      "name": "keepaliveBlock",
      "outputs": [
        {
          "name": "",
          "type": "uint256"
        }
      ],
      "payable": false,
      "stateMutability": "view",
      "type": "function"
    },
    {
      "constant": true,
      "inputs": [],
      "name": "factory",
      "outputs": [
        {
          "name": "",
          "type": "address"
        }
      ],
      "payable": false,
      "stateMutability": "view",
      "type": "function"
    },
    {
      "constant": true,
      "inputs": [],
      "name": "quota",
      "outputs": [
        {
          "name": "",
          "type": "uint256"
        }
      ],
      "payable": false,
      "stateMutability": "view",
      "type": "function"
    },
    {
      "constant": true,
      "inputs": [
        {
          "name": "_member",
          "type": "address"
        }
      ],
      "name": "quotaOf",
      "outputs": [
        {
          "name": "",
          "type": "uint256"
        }
      ],
      "payable": false,
      "stateMutability": "view",
      "type": "function"
    },
    {
      "payable": false,
      "stateMutability": "nonpayable",
      "type": "fallback"
    },
    {
      "constant": false,
      "inputs": [
        {
          "name": "_value",
          "type": "uint256"
        }
      ],
      "name": "refill",
      "outputs": [],
      "payable": false,
      "stateMutability": "nonpayable",
      "type": "function"
    },
    {
      "constant": false,
      "inputs": [
        {
          "name": "_value",
          "type": "uint256"
        }
      ],
      "name": "withdraw",
      "outputs": [],
      "payable": false,
      "stateMutability": "nonpayable",
      "type": "function"
    },
    {
      "constant": false,
      "inputs": [
        {
          "name": "_to",
          "type": "address"
        },
        {
          "name": "_data",
          "type": "bytes"
        }
      ],
      "name": "to",
      "outputs": [],
      "payable": false,
      "stateMutability": "nonpayable",
      "type": "function"
    }
  ],
  "bytecode": "0x608060405260006007556000600855600060095534801561001f57600080fd5b50610a428061002f6000396000f3006080604052600436106100cf5763ffffffff7c01000000000000000000000000000000000000000000000000000000006000350416630f027c67811461023157806327e235e3146102585780632e1a7d4d146102795780632ebe14b014610291578063330f9588146102a65780633acddfc1146102d75780635daf08ca146102ec5780636c55e3851461030457806380c6ff7314610319578063af0bdb381461032e578063c45a01551461035b578063ca9d07ba14610370578063cebe09c914610388578063ef23b3a31461039d575b3480156100db57600080fd5b506007544303600454101561016a5760006100f5336103ba565b116100ff57600080fd5b6101076103e9565b600060085481548110151561011857fe5b600091825260209091200154600160a060020a03163314610138576100ff565b610166600060085481548110151561014c57fe5b600091825260209091200154600160a060020a03166103ba565b6009555b60095415156101935761017b6103e9565b61018f600060085481548110151561014c57fe5b6009555b60095460001061019f57fe5b6009805460001901905560008054116101b757600080fd5b60006008548154811015156101c857fe5b600091825260209091200154600160a060020a031633146101e857600080fd5b43600755600554604051600160a060020a03909116906000903690808383808284378201915050925050506000604051808303816000865af1915050151561022f57600080fd5b005b34801561023d57600080fd5b50610246610401565b60408051918252519081900360200190f35b34801561026457600080fd5b50610246600160a060020a0360043516610408565b34801561028557600080fd5b5061022f60043561041a565b34801561029d57600080fd5b50610246610659565b3480156102b257600080fd5b506102bb61065f565b60408051600160a060020a039092168252519081900360200190f35b3480156102e357600080fd5b5061024661066e565b3480156102f857600080fd5b506102bb600435610674565b34801561031057600080fd5b5061024661069c565b34801561032557600080fd5b506102466106a2565b34801561033a57600080fd5b5061022f60048035600160a060020a031690602480359081019101356106a8565b34801561036757600080fd5b506102bb61087f565b34801561037c57600080fd5b5061022f60043561088e565b34801561039457600080fd5b506102466109d3565b3480156103a957600080fd5b50610246600160a060020a03600435165b600354600160a060020a0382166000908152600260205260408120549091908115156103e257fe5b0492915050565b6000546008546001018115156103fb57fe5b06600855565b6000545b90565b60026020526000908152604090205481565b336000908152600260205260408120548190819084111561043a57600080fd5b3360008181526002602090815260408083208054899003905560065481517fa9059cbb0000000000000000000000000000000000000000000000000000000081526004810195909552602485018990529051600160a060020a039091169363a9059cbb9360448083019493928390030190829087803b1580156104bc57600080fd5b505af11580156104d0573d6000803e3d6000fd5b505050506040513d60208110156104e657600080fd5b505115156104f357600080fd5b6104fc336103ba565b15156106535733600081815260026020908152604080832080549084905560065482517fa9059cbb0000000000000000000000000000000000000000000000000000000081526004810196909652602486018290529151909750600160a060020a039091169363a9059cbb9360448083019493928390030190829087803b15801561058657600080fd5b505af115801561059a573d6000803e3d6000fd5b505050506040513d60208110156105b057600080fd5b505115156105bd57600080fd5b5050336000908152600160205260408120549054600019018082101561063e5760008054829081106105eb57fe5b60009182526020822001548154600160a060020a0390911691908490811061060f57fe5b9060005260206000200160006101000a815481600160a060020a030219169083600160a060020a031602179055505b60008054600019019061065190826109d9565b505b50505050565b60045481565b600654600160a060020a031681565b60085481565b600080548290811061068257fe5b600091825260209091200154600160a060020a0316905081565b60035481565b60075481565b6007544303600454101561071c5760006106c1336103ba565b116106cb57600080fd5b6106d36103e9565b60006008548154811015156106e457fe5b600091825260209091200154600160a060020a03163314610704576106cb565b610718600060085481548110151561014c57fe5b6009555b60095415156107455761072d6103e9565b610741600060085481548110151561014c57fe5b6009555b60095460001061075157fe5b60098054600019019055600080541161076957600080fd5b600060085481548110151561077a57fe5b600091825260209091200154600160a060020a0316331461079a57600080fd5b43600755600554604080517fafecd5e4000000000000000000000000000000000000000000000000000000008152600160a060020a0386811660048301529151600093929092169163afecd5e49160248082019260209290919082900301818787803b15801561080957600080fd5b505af115801561081d573d6000803e3d6000fd5b505050506040513d602081101561083357600080fd5b50511161083f57600080fd5b82600160a060020a03168282604051808383808284378201915050925050506000604051808303816000865af1915050151561087a57600080fd5b505050565b600554600160a060020a031681565b600654604080517f23b872dd000000000000000000000000000000000000000000000000000000008152336004820152306024820152604481018490529051600160a060020a03909216916323b872dd916064808201926020929091908290030181600087803b15801561090157600080fd5b505af1158015610915573d6000803e3d6000fd5b505050506040513d602081101561092b57600080fd5b5051151561093857600080fd5b60035481101561094757600080fd5b3360009081526002602052604090205415156109bb5760008054338083526001602081905260408420839055820183559180527f290decd9548b62a8d60345a988386fc84ba6bc95484008f6362f93160ef3e56301805473ffffffffffffffffffffffffffffffffffffffff191690911790555b33600090815260026020526040902080549091019055565b60095481565b81548183558181111561087a5760008381526020902061087a91810190830161040591905b80821115610a1257600081556001016109fe565b50905600a165627a7a7230582084776c65bc4f0882468ee6b7b9e2cb25cc689e271179c02a611ab37bb208d3ec0029",
  "source": "pragma solidity ^0.4.24;\n\nimport './LighthouseAPI.sol';\nimport './LighthouseABI.sol';\nimport './LiabilityFactory.sol';\n\ncontract LighthouseLib is LighthouseAPI, LighthouseABI {\n\n    function refill(uint256 _value) external {\n        require(xrt.transferFrom(msg.sender, this, _value));\n        require(_value >= minimalFreeze);\n\n        if (balances[msg.sender] == 0) {\n            indexOf[msg.sender] = members.length;\n            members.push(msg.sender);\n        }\n        balances[msg.sender] += _value;\n    }\n\n    function withdraw(uint256 _value) external {\n        require(balances[msg.sender] >= _value);\n\n        balances[msg.sender] -= _value;\n        require(xrt.transfer(msg.sender, _value));\n\n        // Drop member if quota go to zero\n        if (quotaOf(msg.sender) == 0) {\n            uint256 balance = balances[msg.sender];\n            balances[msg.sender] = 0;\n            require(xrt.transfer(msg.sender, balance)); \n            \n            uint256 senderIndex = indexOf[msg.sender];\n            uint256 lastIndex = members.length - 1;\n            if (senderIndex < lastIndex)\n                members[senderIndex] = members[lastIndex];\n            members.length -= 1;\n        }\n    }\n\n    function nextMember() internal\n    { marker = (marker + 1) % members.length; }\n\n    modifier quoted {\n        if (quota == 0) {\n            // Step over marker\n            nextMember();\n\n            // Allocate new quota\n            quota = quotaOf(members[marker]);\n        }\n\n        // Consume one quota for transaction sending\n        assert(quota > 0);\n        quota -= 1;\n\n        _;\n    }\n\n    modifier keepalive {\n        if (timeoutBlocks < block.number - keepaliveBlock) {\n            // Require to sender have a quota\n            require(quotaOf(msg.sender) > 0);\n\n            // Search keepalive sender\n            do\n                nextMember();\n            while (msg.sender != members[marker]);\n\n            // Allocate new quota\n            quota = quotaOf(members[marker]);\n        }\n\n        _;\n    }\n\n    modifier member {\n        // Zero members guard\n        require(members.length > 0);\n\n        // Only member with marker can to send transaction\n        require(msg.sender == members[marker]);\n\n        // Store transaction sending block\n        keepaliveBlock = block.number;\n\n        _;\n    }\n\n    function to(address _to, bytes _data) external keepalive quoted member {\n        require(factory.gasUtilizing(_to) > 0);\n        require(_to.call(_data));\n    }\n\n    function () external keepalive quoted member\n    { require(address(factory).call(msg.data)); }\n}\n",
  "sourcePath": "/home/akru/devel/robonomics_contracts/contracts/robonomics/LighthouseLib.sol",
  "compiler": {
    "name": "solc",
    "version": "0.4.24+commit.e67f0147.Emscripten.clang"
  },
  "schemaVersion": "2.0.1",
  "updatedAt": "2018-10-29T11:38:39.684Z"
}