{
  "contractName": "RobotLiabilityLib",
  "abi": [
    {
      "constant": true,
      "inputs": [],
      "name": "lighthouseFee",
      "outputs": [
        {
          "name": "",
          "type": "uint256"
        }
      ],
      "payable": false,
      "stateMutability": "view",
      "type": "function"
    },
    {
      "constant": true,
      "inputs": [],
      "name": "model",
      "outputs": [
        {
          "name": "",
          "type": "bytes"
        }
      ],
      "payable": false,
      "stateMutability": "view",
      "type": "function"
    },
    {
      "constant": true,
      "inputs": [],
      "name": "isSuccess",
      "outputs": [
        {
          "name": "",
          "type": "bool"
        }
      ],
      "payable": false,
      "stateMutability": "view",
      "type": "function"
    },
    {
      "constant": true,
      "inputs": [],
      "name": "cost",
      "outputs": [
        {
          "name": "",
          "type": "uint256"
        }
      ],
      "payable": false,
      "stateMutability": "view",
      "type": "function"
    },
    {
      "constant": true,
      "inputs": [],
      "name": "objective",
      "outputs": [
        {
          "name": "",
          "type": "bytes"
        }
      ],
      "payable": false,
      "stateMutability": "view",
      "type": "function"
    },
    {
      "constant": true,
      "inputs": [],
      "name": "validator",
      "outputs": [
        {
          "name": "",
          "type": "address"
        }
      ],
      "payable": false,
      "stateMutability": "view",
      "type": "function"
    },
    {
      "constant": true,
      "inputs": [],
      "name": "validatorFee",
      "outputs": [
        {
          "name": "",
          "type": "uint256"
        }
      ],
      "payable": false,
      "stateMutability": "view",
      "type": "function"
    },
    {
      "constant": true,
      "inputs": [],
      "name": "promisee",
      "outputs": [
        {
          "name": "",
          "type": "address"
        }
      ],
      "payable": false,
      "stateMutability": "view",
      "type": "function"
    },
    {
      "constant": true,
      "inputs": [],
      "name": "lighthouse",
      "outputs": [
        {
          "name": "",
          "type": "address"
        }
      ],
      "payable": false,
      "stateMutability": "view",
      "type": "function"
    },
    {
      "constant": true,
      "inputs": [],
      "name": "result",
      "outputs": [
        {
          "name": "",
          "type": "bytes"
        }
      ],
      "payable": false,
      "stateMutability": "view",
      "type": "function"
    },
    {
      "constant": true,
      "inputs": [],
      "name": "offerHash",
      "outputs": [
        {
          "name": "",
          "type": "bytes32"
        }
      ],
      "payable": false,
      "stateMutability": "view",
      "type": "function"
    },
    {
      "constant": true,
      "inputs": [],
      "name": "isFinalized",
      "outputs": [
        {
          "name": "",
          "type": "bool"
        }
      ],
      "payable": false,
      "stateMutability": "view",
      "type": "function"
    },
    {
      "constant": true,
      "inputs": [],
      "name": "promisor",
      "outputs": [
        {
          "name": "",
          "type": "address"
        }
      ],
      "payable": false,
      "stateMutability": "view",
      "type": "function"
    },
    {
      "constant": true,
      "inputs": [],
      "name": "factory",
      "outputs": [
        {
          "name": "",
          "type": "address"
        }
      ],
      "payable": false,
      "stateMutability": "view",
      "type": "function"
    },
    {
      "constant": true,
      "inputs": [],
      "name": "demandHash",
      "outputs": [
        {
          "name": "",
          "type": "bytes32"
        }
      ],
      "payable": false,
      "stateMutability": "view",
      "type": "function"
    },
    {
      "constant": true,
      "inputs": [],
      "name": "token",
      "outputs": [
        {
          "name": "",
          "type": "address"
        }
      ],
      "payable": false,
      "stateMutability": "view",
      "type": "function"
    },
    {
      "anonymous": false,
      "inputs": [
        {
          "indexed": true,
          "name": "success",
          "type": "bool"
        },
        {
          "indexed": false,
          "name": "result",
          "type": "bytes"
        }
      ],
      "name": "Finalized",
      "type": "event"
    },
    {
      "constant": false,
      "inputs": [
        {
          "name": "_model",
          "type": "bytes"
        },
        {
          "name": "_objective",
          "type": "bytes"
        },
        {
          "name": "_token",
          "type": "address"
        },
        {
          "name": "_cost",
          "type": "uint256"
        },
        {
          "name": "_lighthouse",
          "type": "address"
        },
        {
          "name": "_validator",
          "type": "address"
        },
        {
          "name": "_validator_fee",
          "type": "uint256"
        },
        {
          "name": "_deadline",
          "type": "uint256"
        },
        {
          "name": "_nonce",
          "type": "bytes32"
        },
        {
          "name": "_signature",
          "type": "bytes"
        }
      ],
      "name": "demand",
      "outputs": [
        {
          "name": "",
          "type": "bool"
        }
      ],
      "payable": false,
      "stateMutability": "nonpayable",
      "type": "function"
    },
    {
      "constant": false,
      "inputs": [
        {
          "name": "_model",
          "type": "bytes"
        },
        {
          "name": "_objective",
          "type": "bytes"
        },
        {
          "name": "_token",
          "type": "address"
        },
        {
          "name": "_cost",
          "type": "uint256"
        },
        {
          "name": "_validator",
          "type": "address"
        },
        {
          "name": "_lighthouse",
          "type": "address"
        },
        {
          "name": "_lighthouse_fee",
          "type": "uint256"
        },
        {
          "name": "_deadline",
          "type": "uint256"
        },
        {
          "name": "_nonce",
          "type": "bytes32"
        },
        {
          "name": "_signature",
          "type": "bytes"
        }
      ],
      "name": "offer",
      "outputs": [
        {
          "name": "",
          "type": "bool"
        }
      ],
      "payable": false,
      "stateMutability": "nonpayable",
      "type": "function"
    },
    {
      "constant": false,
      "inputs": [
        {
          "name": "_result",
          "type": "bytes"
        },
        {
          "name": "_success",
          "type": "bool"
        },
        {
          "name": "_signature",
          "type": "bytes"
        },
        {
          "name": "_agree",
          "type": "bool"
        }
      ],
      "name": "finalize",
      "outputs": [
        {
          "name": "",
          "type": "bool"
        }
      ],
      "payable": false,
      "stateMutability": "nonpayable",
      "type": "function"
    }
  ],
  "bytecode": "0x608060405234801561001057600080fd5b50611426806100206000396000f3006080604052600436106101065763ffffffff7c0100000000000000000000000000000000000000000000000000000000600035041663051064c6811461010b5780630ad9d052146101325780630b6c754b146101bc57806313faede6146101e557806314f1586a146101fa5780633a5381b51461020f5780633f6d825614610240578063474ce872146102555780636301fd631461026a578063653721471461027f578063699373ca146102945780638d4e4083146102a9578063c2d8de54146102be578063c45a0155146102d3578063c5213e31146102e8578063d50569621461031f578063d9ff764a14610382578063f0476bc5146103e5578063fc0c546a146103fa575b600080fd5b34801561011757600080fd5b5061012061040f565b60408051918252519081900360200190f35b34801561013e57600080fd5b50610147610415565b6040805160208082528351818301528351919283929083019185019080838360005b83811015610181578181015183820152602001610169565b50505050905090810190601f1680156101ae5780820380516001836020036101000a031916815260200191505b509250505060405180910390f35b3480156101c857600080fd5b506101d16104a3565b604080519115158252519081900360200190f35b3480156101f157600080fd5b506101206104c4565b34801561020657600080fd5b506101476104ca565b34801561021b57600080fd5b50610224610524565b60408051600160a060020a039092168252519081900360200190f35b34801561024c57600080fd5b50610120610533565b34801561026157600080fd5b50610224610539565b34801561027657600080fd5b50610224610548565b34801561028b57600080fd5b50610147610557565b3480156102a057600080fd5b506101206105af565b3480156102b557600080fd5b506101d16105b5565b3480156102ca57600080fd5b506102246105d7565b3480156102df57600080fd5b506102246105e6565b3480156102f457600080fd5b506101d1602460048035828101929082013591813515159160443590810191013560643515156105f5565b34801561032b57600080fd5b506101d16024600480358281019290820135918135808301929082013591600160a060020a036044358116926064359260843583169260a435169160c4359160e43591610104359161012435918201910135610ab6565b34801561038e57600080fd5b506101d16024600480358281019290820135918135808301929082013591600160a060020a036044358116926064359260843583169260a435169160c4359160e43591610104359161012435918201910135610e25565b3480156103f157600080fd5b50610120611113565b34801561040657600080fd5b50610224611119565b60055481565b6000805460408051602060026001851615610100026000190190941693909304601f8101849004840282018401909252818152929183018282801561049b5780601f106104705761010080835404028352916020019161049b565b820191906000526020600020905b81548152906001019060200180831161047e57829003601f168201915b505050505081565b600c5474010000000000000000000000000000000000000000900460ff1681565b60045481565b60018054604080516020600284861615610100026000190190941693909304601f8101849004840282018401909252818152929183018282801561049b5780601f106104705761010080835404028352916020019161049b565b600c54600160a060020a031681565b60065481565b600a54600160a060020a031681565b600b54600160a060020a031681565b6002805460408051602060018416156101000260001901909316849004601f8101849004840282018401909252818152929183018282801561049b5780601f106104705761010080835404028352916020019161049b565b60085481565b600c547501000000000000000000000000000000000000000000900460ff1681565b600954600160a060020a031681565b600d54600160a060020a031681565b60008060005a600c549092507501000000000000000000000000000000000000000000900460ff161561062757600080fd5b61074c86868080601f016020809104026020016040519081016040528093929190818152602001838380828437820191505050505050610740308c8c8c6040516020018085600160a060020a0316600160a060020a03166c01000000000000000000000000028152601401848480828437820191505082151515157f01000000000000000000000000000000000000000000000000000000000000000281526001019450505050506040516020818303038152906040526040518082805190602001908083835b6020831061070d5780518252601f1990920191602091820191016106ee565b5181516020939093036101000a600019018019909116921691909117905260405192018290039091209250611128915050565b9063ffffffff6111d216565b600954909150600160a060020a0380831691161461076957600080fd5b61077560028a8a61135f565b50600c54600160a060020a031615610796578680156107915750835b610798565b865b600c8054750100000000000000000000000000000000000000000074ff0000000000000000000000000000000000000000199091167401000000000000000000000000000000000000000093151584021775ff0000000000000000000000000000000000000000001916179081905560408051602080825260028054610100600182161502600019011681900491830182905260ff95909404949094161515937f7d5242f52c478159b4963f0898012c593d0786bfa3bce2e9bb2f073b068caee09392829190820190849080156108b05780601f10610885576101008083540402835291602001916108b0565b820191906000526020600020905b81548152906001019060200180831161089357829003601f168201915b50509250505060405180910390a2600c54600160a060020a031615156108ec57600b54600160a060020a031633146108e757600080fd5b6109bc565b600c54600160a060020a0316331461090357600080fd5b600060065411156109bc57600c54600654600d54604080517f330f958800000000000000000000000000000000000000000000000000000000815290516109bc94600160a060020a039081169493169163330f95889160048083019260209291908290030181600087803b15801561097a57600080fd5b505af115801561098e573d6000803e3d6000fd5b505050506040513d60208110156109a457600080fd5b5051600160a060020a0316919063ffffffff6112a716565b60006004541115610a0957610a09876109e057600a54600160a060020a03166109ed565b600954600160a060020a03165b600454600354600160a060020a0316919063ffffffff6112a716565b600d54604080517fc9b94eb9000000000000000000000000000000000000000000000000000000008152600481018590529051600160a060020a039092169163c9b94eb9916024808201926020929091908290030181600087803b158015610a7057600080fd5b505af1158015610a84573d6000803e3d6000fd5b505050506040513d6020811015610a9a57600080fd5b50511515610aa757600080fd5b50600198975050505050505050565b600d54600090600160a060020a03163314610ad057600080fd5b438511610adc57600080fd5b8d8d6040518083838082843782019150509250505060405180910390206000191660006040518082805460018160011615610100020316600290048015610b5a5780601f10610b38576101008083540402835291820191610b5a565b820191906000526020600020905b815481529060010190602001808311610b46575b5050915050604051809103902060001916141515610b7757600080fd5b8b8b6040518083838082843782019150509250505060405180910390206000191660016040518082805460018160011615610100020316600290048015610bf55780601f10610bd3576101008083540402835291820191610bf5565b820191906000526020600020905b815481529060010190602001808311610be1575b5050915050604051809103902060001916141515610c1257600080fd5b600354600160a060020a038b8116911614610c2c57600080fd5b6004548914610c3a57600080fd5b600b54600160a060020a03888116911614610c5457600080fd5b600c54600160a060020a03898116911614610c6e57600080fd5b856005819055508d8d8d8d8d8d8d8d8d8d8d604051602001808c8c8082843782019150508a8a80828437820191505088600160a060020a0316600160a060020a03166c0100000000000000000000000002815260140187815260200186600160a060020a0316600160a060020a03166c0100000000000000000000000002815260140185600160a060020a0316600160a060020a03166c0100000000000000000000000002815260140184815260200183815260200182600019166000191681526020019b5050505050505050505050506040516020818303038152906040526040518082805190602001908083835b60208310610d7d5780518252601f199092019160209182019101610d5e565b51815160209384036101000a600019018019909216911617905260408051929094018290038220600855601f8801819004810282018101909352868152610de494509250869186915081908401838280828437505060085461074094509250611128915050565b6009805473ffffffffffffffffffffffffffffffffffffffff1916600160a060020a03929092169190911790555060019d9c50505050505050505050505050565b600d54600090600160a060020a03163314610e3f57600080fd5b438511610e4b57600080fd5b600d54604080517fbbb6630f000000000000000000000000000000000000000000000000000000008152600160a060020a038b811660048301529151919092169163bbb6630f9160248083019260209291908290030181600087803b158015610eb357600080fd5b505af1158015610ec7573d6000803e3d6000fd5b505050506040513d6020811015610edd57600080fd5b50511515610eea57600080fd5b610ef660008f8f61135f565b50610f0360018d8d61135f565b5060038054600160a060020a03808d1673ffffffffffffffffffffffffffffffffffffffff199283161790925560048b9055600b80548b8416908316179055600c8054928a169290911691909117905560068690556040518e908e908e908e908e908e908e908e908e908e908e90602001808c8c8082843782019150508a8a80828437820191505088600160a060020a0316600160a060020a03166c0100000000000000000000000002815260140187815260200186600160a060020a0316600160a060020a03166c0100000000000000000000000002815260140185600160a060020a0316600160a060020a03166c0100000000000000000000000002815260140184815260200183815260200182600019166000191681526020019b5050505050505050505050506040516020818303038152906040526040518082805190602001908083835b6020831061106b5780518252601f19909201916020918201910161104c565b51815160209384036101000a600019018019909216911617905260408051929094018290038220600755601f88018190048102820181019093528681526110d294509250869186915081908401838280828437505060075461074094509250611128915050565b600a805473ffffffffffffffffffffffffffffffffffffffff1916600160a060020a03929092169190911790555060019d9c50505050505050505050505050565b60075481565b600354600160a060020a031681565b604080517f19457468657265756d205369676e6564204d6573736167653a0a333200000000602080830191909152603c80830185905283518084039091018152605c909201928390528151600093918291908401908083835b602083106111a05780518252601f199092019160209182019101611181565b5181516020939093036101000a6000190180199091169216919091179052604051920182900390912095945050505050565b600080600080845160411415156111ec576000935061129e565b50505060208201516040830151606084015160001a601b60ff8216101561121157601b015b8060ff16601b1415801561122957508060ff16601c14155b15611237576000935061129e565b60408051600080825260208083018085528a905260ff8516838501526060830187905260808301869052925160019360a0808501949193601f19840193928390039091019190865af1158015611291573d6000803e3d6000fd5b5050506020604051035193505b50505092915050565b82600160a060020a031663a9059cbb83836040518363ffffffff167c01000000000000000000000000000000000000000000000000000000000281526004018083600160a060020a0316600160a060020a0316815260200182815260200192505050602060405180830381600087803b15801561132357600080fd5b505af1158015611337573d6000803e3d6000fd5b505050506040513d602081101561134d57600080fd5b5051151561135a57600080fd5b505050565b828054600181600116156101000203166002900490600052602060002090601f016020900481019282601f106113a05782800160ff198235161785556113cd565b828001600101855582156113cd579182015b828111156113cd5782358255916020019190600101906113b2565b506113d99291506113dd565b5090565b6113f791905b808211156113d957600081556001016113e3565b905600a165627a7a723058207f391751e6e5d43e79f3a3c7b8171bc830aeaa8e0ac849475905f5a7c00306c00029",
  "source": "pragma solidity ^0.4.24;\n\nimport 'openzeppelin-solidity/contracts/cryptography/ECDSA.sol';\nimport 'openzeppelin-solidity/contracts/token/ERC20/SafeERC20.sol';\nimport './RobotLiabilityABI.sol';\nimport './RobotLiabilityAPI.sol';\n\ncontract RobotLiabilityLib is RobotLiabilityABI\n                            , RobotLiabilityAPI {\n    using ECDSA for bytes32;\n    using SafeERC20 for XRT;\n    using SafeERC20 for ERC20;\n\n    function demand(\n        bytes   _model,\n        bytes   _objective,\n\n        ERC20   _token,\n        uint256 _cost,\n\n        address _lighthouse,\n\n        address _validator,\n        uint256 _validator_fee,\n\n        uint256 _deadline,\n        bytes32 _nonce,\n        bytes   _signature\n    )\n        external\n        returns (bool)\n    {\n        require(msg.sender == address(factory));\n        require(block.number < _deadline);\n        require(factory.isLighthouse(_lighthouse));\n\n        model        = _model;\n        objective    = _objective;\n        token        = _token;\n        cost         = _cost;\n        lighthouse   = _lighthouse;\n        validator    = _validator;\n        validatorFee = _validator_fee;\n\n        demandHash = keccak256(abi.encodePacked(\n            _model\n          , _objective\n          , _token\n          , _cost\n          , _lighthouse\n          , _validator\n          , _validator_fee\n          , _deadline\n          , _nonce\n        ));\n\n        promisee = demandHash\n            .toEthSignedMessageHash()\n            .recover(_signature);\n        return true;\n    }\n\n    function offer(\n        bytes   _model,\n        bytes   _objective,\n        \n        ERC20   _token,\n        uint256 _cost,\n\n        address _validator,\n\n        address _lighthouse,\n        uint256 _lighthouse_fee,\n\n        uint256 _deadline,\n        bytes32 _nonce,\n        bytes   _signature\n    )\n        external\n        returns (bool)\n    {\n        require(msg.sender == address(factory));\n        require(block.number < _deadline);\n        require(keccak256(model) == keccak256(_model));\n        require(keccak256(objective) == keccak256(_objective));\n        require(_token == token);\n        require(_cost == cost);\n        require(_lighthouse == lighthouse);\n        require(_validator == validator);\n\n        lighthouseFee = _lighthouse_fee;\n\n        offerHash = keccak256(abi.encodePacked(\n            _model\n          , _objective\n          , _token\n          , _cost\n          , _validator\n          , _lighthouse\n          , _lighthouse_fee\n          , _deadline\n          , _nonce\n        ));\n\n        promisor = offerHash\n            .toEthSignedMessageHash()\n            .recover(_signature);\n        return true;\n    }\n\n    /**\n     * @dev Finalize this liability\n     * @param _result Result data hash\n     * @param _success Set 'true' when liability has success result\n     * @param _signature Result signature: liability address, result and success flag signed by promisor\n     * @param _agree Validator decision around liability\n     */\n    function finalize(\n        bytes _result,\n        bool  _success,\n        bytes _signature,\n        bool  _agree\n    )\n        external\n        returns (bool)\n    {\n        uint256 gasinit = gasleft();\n\n        require(!isFinalized);\n\n        address resultSender = keccak256(abi.encodePacked(this, _result, _success))\n            .toEthSignedMessageHash()\n            .recover(_signature);\n        require(resultSender == promisor);\n\n        result      = _result;\n        isSuccess   = validator == 0 ? _success : _success && _agree;\n\n        isFinalized = true;\n        emit Finalized(isSuccess, result);\n\n        if (validator == 0) {\n            require(msg.sender == lighthouse);\n        } else {\n            require(msg.sender == validator);\n            if (validatorFee > 0)\n                factory.xrt().safeTransfer(validator, validatorFee);\n        }\n\n        if (cost > 0)\n            token.safeTransfer(_success ? promisor : promisee, cost);\n\n        require(factory.liabilityFinalized(gasinit));\n        return true;\n    }\n}\n",
  "sourcePath": "/home/akru/devel/robonomics_contracts/contracts/robonomics/RobotLiabilityLib.sol",
  "compiler": {
    "name": "solc",
    "version": "0.4.24+commit.e67f0147.Emscripten.clang"
  },
  "schemaVersion": "2.0.1",
  "updatedAt": "2018-10-29T11:38:39.688Z"
}