{
  "contractName": "XRT",
  "abi": [
    {
      "constant": true,
      "inputs": [],
      "name": "name",
      "outputs": [
        {
          "name": "",
          "type": "string"
        }
      ],
      "payable": false,
      "stateMutability": "view",
      "type": "function"
    },
    {
      "constant": false,
      "inputs": [
        {
          "name": "spender",
          "type": "address"
        },
        {
          "name": "value",
          "type": "uint256"
        }
      ],
      "name": "approve",
      "outputs": [
        {
          "name": "",
          "type": "bool"
        }
      ],
      "payable": false,
      "stateMutability": "nonpayable",
      "type": "function"
    },
    {
      "constant": true,
      "inputs": [],
      "name": "totalSupply",
      "outputs": [
        {
          "name": "",
          "type": "uint256"
        }
      ],
      "payable": false,
      "stateMutability": "view",
      "type": "function"
    },
    {
      "constant": false,
      "inputs": [
        {
          "name": "from",
          "type": "address"
        },
        {
          "name": "to",
          "type": "address"
        },
        {
          "name": "value",
          "type": "uint256"
        }
      ],
      "name": "transferFrom",
      "outputs": [
        {
          "name": "",
          "type": "bool"
        }
      ],
      "payable": false,
      "stateMutability": "nonpayable",
      "type": "function"
    },
    {
      "constant": true,
      "inputs": [],
      "name": "decimals",
      "outputs": [
        {
          "name": "",
          "type": "uint8"
        }
      ],
      "payable": false,
      "stateMutability": "view",
      "type": "function"
    },
    {
      "constant": false,
      "inputs": [
        {
          "name": "spender",
          "type": "address"
        },
        {
          "name": "addedValue",
          "type": "uint256"
        }
      ],
      "name": "increaseAllowance",
      "outputs": [
        {
          "name": "",
          "type": "bool"
        }
      ],
      "payable": false,
      "stateMutability": "nonpayable",
      "type": "function"
    },
    {
      "constant": false,
      "inputs": [
        {
          "name": "to",
          "type": "address"
        },
        {
          "name": "value",
          "type": "uint256"
        }
      ],
      "name": "mint",
      "outputs": [
        {
          "name": "",
          "type": "bool"
        }
      ],
      "payable": false,
      "stateMutability": "nonpayable",
      "type": "function"
    },
    {
      "constant": false,
      "inputs": [
        {
          "name": "value",
          "type": "uint256"
        }
      ],
      "name": "burn",
      "outputs": [],
      "payable": false,
      "stateMutability": "nonpayable",
      "type": "function"
    },
    {
      "constant": true,
      "inputs": [
        {
          "name": "owner",
          "type": "address"
        }
      ],
      "name": "balanceOf",
      "outputs": [
        {
          "name": "",
          "type": "uint256"
        }
      ],
      "payable": false,
      "stateMutability": "view",
      "type": "function"
    },
    {
      "constant": false,
      "inputs": [
        {
          "name": "from",
          "type": "address"
        },
        {
          "name": "value",
          "type": "uint256"
        }
      ],
      "name": "burnFrom",
      "outputs": [],
      "payable": false,
      "stateMutability": "nonpayable",
      "type": "function"
    },
    {
      "constant": true,
      "inputs": [],
      "name": "symbol",
      "outputs": [
        {
          "name": "",
          "type": "string"
        }
      ],
      "payable": false,
      "stateMutability": "view",
      "type": "function"
    },
    {
      "constant": false,
      "inputs": [
        {
          "name": "account",
          "type": "address"
        }
      ],
      "name": "addMinter",
      "outputs": [],
      "payable": false,
      "stateMutability": "nonpayable",
      "type": "function"
    },
    {
      "constant": false,
      "inputs": [],
      "name": "renounceMinter",
      "outputs": [],
      "payable": false,
      "stateMutability": "nonpayable",
      "type": "function"
    },
    {
      "constant": false,
      "inputs": [
        {
          "name": "spender",
          "type": "address"
        },
        {
          "name": "subtractedValue",
          "type": "uint256"
        }
      ],
      "name": "decreaseAllowance",
      "outputs": [
        {
          "name": "",
          "type": "bool"
        }
      ],
      "payable": false,
      "stateMutability": "nonpayable",
      "type": "function"
    },
    {
      "constant": false,
      "inputs": [
        {
          "name": "to",
          "type": "address"
        },
        {
          "name": "value",
          "type": "uint256"
        }
      ],
      "name": "transfer",
      "outputs": [
        {
          "name": "",
          "type": "bool"
        }
      ],
      "payable": false,
      "stateMutability": "nonpayable",
      "type": "function"
    },
    {
      "constant": true,
      "inputs": [
        {
          "name": "account",
          "type": "address"
        }
      ],
      "name": "isMinter",
      "outputs": [
        {
          "name": "",
          "type": "bool"
        }
      ],
      "payable": false,
      "stateMutability": "view",
      "type": "function"
    },
    {
      "constant": true,
      "inputs": [
        {
          "name": "owner",
          "type": "address"
        },
        {
          "name": "spender",
          "type": "address"
        }
      ],
      "name": "allowance",
      "outputs": [
        {
          "name": "",
          "type": "uint256"
        }
      ],
      "payable": false,
      "stateMutability": "view",
      "type": "function"
    },
    {
      "inputs": [],
      "payable": false,
      "stateMutability": "nonpayable",
      "type": "constructor"
    },
    {
      "anonymous": false,
      "inputs": [
        {
          "indexed": true,
          "name": "account",
          "type": "address"
        }
      ],
      "name": "MinterAdded",
      "type": "event"
    },
    {
      "anonymous": false,
      "inputs": [
        {
          "indexed": true,
          "name": "account",
          "type": "address"
        }
      ],
      "name": "MinterRemoved",
      "type": "event"
    },
    {
      "anonymous": false,
      "inputs": [
        {
          "indexed": true,
          "name": "from",
          "type": "address"
        },
        {
          "indexed": true,
          "name": "to",
          "type": "address"
        },
        {
          "indexed": false,
          "name": "value",
          "type": "uint256"
        }
      ],
      "name": "Transfer",
      "type": "event"
    },
    {
      "anonymous": false,
      "inputs": [
        {
          "indexed": true,
          "name": "owner",
          "type": "address"
        },
        {
          "indexed": true,
          "name": "spender",
          "type": "address"
        },
        {
          "indexed": false,
          "name": "value",
          "type": "uint256"
        }
      ],
      "name": "Approval",
      "type": "event"
    }
  ],
  "bytecode": "0x60806040523480156200001157600080fd5b5060006040805190810160405280600381526020017f58525400000000000000000000000000000000000000000000000000000000008152506040805190810160405280600f81526020017f526f626f6e6f6d6963732042657461000000000000000000000000000000000081525060096200009c3362000103640100000000026401000000009004565b8251620000b1906004906020860190620002c1565b508151620000c7906005906020850190620002c1565b506006805460ff191660ff929092169190911790555064e8d4a510009150620000fc9050338264010000000062000155810204565b5062000366565b6200011e60038264010000000062000b9c6200021482021704565b604051600160a060020a038216907f6ae172837ea30b801fbfcdd4108aa1d5bf8ff775444fd70256b44e6bf3dfc3f690600090a250565b600160a060020a03821615156200016b57600080fd5b600254620001889082640100000000620008b26200026f82021704565b600255600160a060020a038216600090815260208190526040902054620001be9082640100000000620008b26200026f82021704565b600160a060020a0383166000818152602081815260408083209490945583518581529351929391927fddf252ad1be2c89b69c2b068fc378daa952ba7f163c4a11628f55a4df523b3ef9281900390910190a35050565b600160a060020a03811615156200022a57600080fd5b6200023f828264010000000062000289810204565b156200024a57600080fd5b600160a060020a0316600090815260209190915260409020805460ff19166001179055565b6000828201838110156200028257600080fd5b9392505050565b6000600160a060020a0382161515620002a157600080fd5b50600160a060020a03166000908152602091909152604090205460ff1690565b828054600181600116156101000203166002900490600052602060002090601f016020900481019282601f106200030457805160ff191683800117855562000334565b8280016001018555821562000334579182015b828111156200033457825182559160200191906001019062000317565b506200034292915062000346565b5090565b6200036391905b808211156200034257600081556001016200034d565b90565b610c6280620003766000396000f3006080604052600436106100f05763ffffffff7c010000000000000000000000000000000000000000000000000000000060003504166306fdde0381146100f5578063095ea7b31461017f57806318160ddd146101b757806323b872dd146101de578063313ce56714610208578063395093511461023357806340c10f191461025757806342966c681461027b57806370a082311461029557806379cc6790146102b657806395d89b41146102da578063983b2d56146102ef5780639865027514610310578063a457c2d714610325578063a9059cbb14610349578063aa271e1a1461036d578063dd62ed3e1461038e575b600080fd5b34801561010157600080fd5b5061010a6103b5565b6040805160208082528351818301528351919283929083019185019080838360005b8381101561014457818101518382015260200161012c565b50505050905090810190601f1680156101715780820380516001836020036101000a031916815260200191505b509250505060405180910390f35b34801561018b57600080fd5b506101a3600160a060020a036004351660243561044b565b604080519115158252519081900360200190f35b3480156101c357600080fd5b506101cc6104c9565b60408051918252519081900360200190f35b3480156101ea57600080fd5b506101a3600160a060020a03600435811690602435166044356104cf565b34801561021457600080fd5b5061021d61056c565b6040805160ff9092168252519081900360200190f35b34801561023f57600080fd5b506101a3600160a060020a0360043516602435610575565b34801561026357600080fd5b506101a3600160a060020a0360043516602435610625565b34801561028757600080fd5b5061029360043561064e565b005b3480156102a157600080fd5b506101cc600160a060020a036004351661065b565b3480156102c257600080fd5b50610293600160a060020a0360043516602435610676565b3480156102e657600080fd5b5061010a610684565b3480156102fb57600080fd5b50610293600160a060020a03600435166106e5565b34801561031c57600080fd5b50610293610702565b34801561033157600080fd5b506101a3600160a060020a036004351660243561070d565b34801561035557600080fd5b506101a3600160a060020a0360043516602435610758565b34801561037957600080fd5b506101a3600160a060020a0360043516610765565b34801561039a57600080fd5b506101cc600160a060020a036004358116906024351661077e565b60048054604080516020601f60026000196101006001881615020190951694909404938401819004810282018101909252828152606093909290918301828280156104415780601f1061041657610100808354040283529160200191610441565b820191906000526020600020905b81548152906001019060200180831161042457829003601f168201915b5050505050905090565b6000600160a060020a038316151561046257600080fd5b336000818152600160209081526040808320600160a060020a03881680855290835292819020869055805186815290519293927f8c5be1e5ebec7d5bd14f71427d1e84f3dd0314c0f7b2291e5b200ac8c7c3b925929181900390910190a350600192915050565b60025490565b600160a060020a03831660009081526001602090815260408083203384529091528120548211156104ff57600080fd5b600160a060020a0384166000908152600160209081526040808320338452909152902054610533908363ffffffff6107a916565b600160a060020a03851660009081526001602090815260408083203384529091529020556105628484846107c0565b5060019392505050565b60065460ff1690565b6000600160a060020a038316151561058c57600080fd5b336000908152600160209081526040808320600160a060020a03871684529091529020546105c0908363ffffffff6108b216565b336000818152600160209081526040808320600160a060020a0389168085529083529281902085905580519485525191937f8c5be1e5ebec7d5bd14f71427d1e84f3dd0314c0f7b2291e5b200ac8c7c3b925929081900390910190a350600192915050565b600061063033610765565b151561063b57600080fd5b61064583836108cb565b50600192915050565b6106583382610975565b50565b600160a060020a031660009081526020819052604090205490565b6106808282610a43565b5050565b60058054604080516020601f60026000196101006001881615020190951694909404938401819004810282018101909252828152606093909290918301828280156104415780601f1061041657610100808354040283529160200191610441565b6106ee33610765565b15156106f957600080fd5b61065881610ad5565b61070b33610b1d565b565b6000600160a060020a038316151561072457600080fd5b336000908152600160209081526040808320600160a060020a03871684529091529020546105c0908363ffffffff6107a916565b60006106453384846107c0565b600061077860038363ffffffff610b6516565b92915050565b600160a060020a03918216600090815260016020908152604080832093909416825291909152205490565b600080838311156107b957600080fd5b5050900390565b600160a060020a0383166000908152602081905260409020548111156107e557600080fd5b600160a060020a03821615156107fa57600080fd5b600160a060020a038316600090815260208190526040902054610823908263ffffffff6107a916565b600160a060020a038085166000908152602081905260408082209390935590841681522054610858908263ffffffff6108b216565b600160a060020a038084166000818152602081815260409182902094909455805185815290519193928716927fddf252ad1be2c89b69c2b068fc378daa952ba7f163c4a11628f55a4df523b3ef92918290030190a3505050565b6000828201838110156108c457600080fd5b9392505050565b600160a060020a03821615156108e057600080fd5b6002546108f3908263ffffffff6108b216565b600255600160a060020a03821660009081526020819052604090205461091f908263ffffffff6108b216565b600160a060020a0383166000818152602081815260408083209490945583518581529351929391927fddf252ad1be2c89b69c2b068fc378daa952ba7f163c4a11628f55a4df523b3ef9281900390910190a35050565b600160a060020a038216151561098a57600080fd5b600160a060020a0382166000908152602081905260409020548111156109af57600080fd5b6002546109c2908263ffffffff6107a916565b600255600160a060020a0382166000908152602081905260409020546109ee908263ffffffff6107a916565b600160a060020a038316600081815260208181526040808320949094558351858152935191937fddf252ad1be2c89b69c2b068fc378daa952ba7f163c4a11628f55a4df523b3ef929081900390910190a35050565b600160a060020a0382166000908152600160209081526040808320338452909152902054811115610a7357600080fd5b600160a060020a0382166000908152600160209081526040808320338452909152902054610aa7908263ffffffff6107a916565b600160a060020a03831660009081526001602090815260408083203384529091529020556106808282610975565b610ae660038263ffffffff610b9c16565b604051600160a060020a038216907f6ae172837ea30b801fbfcdd4108aa1d5bf8ff775444fd70256b44e6bf3dfc3f690600090a250565b610b2e60038263ffffffff610bea16565b604051600160a060020a038216907fe94479a9f7e1952cc78f2d6baab678adc1b772d936c6583def489e524cb6669290600090a250565b6000600160a060020a0382161515610b7c57600080fd5b50600160a060020a03166000908152602091909152604090205460ff1690565b600160a060020a0381161515610bb157600080fd5b610bbb8282610b65565b15610bc557600080fd5b600160a060020a0316600090815260209190915260409020805460ff19166001179055565b600160a060020a0381161515610bff57600080fd5b610c098282610b65565b1515610c1457600080fd5b600160a060020a0316600090815260209190915260409020805460ff191690555600a165627a7a72305820eee52f053f202b69b6270780719eaa08b73de73da7094ec33b9188ad7185a98f0029",
  "source": "pragma solidity ^0.4.24;\n\nimport 'openzeppelin-solidity/contracts/token/ERC20/ERC20Mintable.sol';\nimport 'openzeppelin-solidity/contracts/token/ERC20/ERC20Burnable.sol';\nimport 'openzeppelin-solidity/contracts/token/ERC20/ERC20Detailed.sol';\n\ncontract XRT is ERC20Mintable, ERC20Burnable, ERC20Detailed {\n    constructor() public ERC20Detailed(\"XRT\", \"Robonomics Beta\", 9) {\n        uint256 INITIAL_SUPPLY = 1000 * (10 ** 9);\n        _mint(msg.sender, INITIAL_SUPPLY);\n    }\n}\n",
  "sourcePath": "/home/akru/devel/robonomics_contracts/contracts/robonomics/XRT.sol",
  "compiler": {
    "name": "solc",
    "version": "0.4.24+commit.e67f0147.Emscripten.clang"
  },
  "schemaVersion": "2.0.1",
  "updatedAt": "2018-10-29T11:38:39.669Z"
}